{
  "_format": "hh-sol-artifact-1",
  "contractName": "Registry",
  "sourceName": "contracts/Registry/Registry.sol",
  "abi": [
    {
      "inputs": [
        {
          "internalType": "address",
          "name": "registryDAOAddress",
          "type": "address"
        },
        {
          "internalType": "address",
          "name": "ERC1155Address",
          "type": "address"
        }
      ],
      "stateMutability": "nonpayable",
      "type": "constructor"
    },
    {
      "anonymous": false,
      "inputs": [
        {
          "indexed": true,
          "internalType": "uint256",
          "name": "itemId",
          "type": "uint256"
        },
        {
          "indexed": false,
          "internalType": "address",
          "name": "tabeliao",
          "type": "address"
        }
      ],
      "name": "IncorporateFinish",
      "type": "event"
    },
    {
      "anonymous": false,
      "inputs": [
        {
          "indexed": true,
          "internalType": "uint256",
          "name": "itemId",
          "type": "uint256"
        },
        {
          "indexed": true,
          "internalType": "uint256",
          "name": "previousId",
          "type": "uint256"
        },
        {
          "indexed": false,
          "internalType": "address",
          "name": "tabeliao",
          "type": "address"
        }
      ],
      "name": "IncorporateFinishUpdate",
      "type": "event"
    },
    {
      "anonymous": false,
      "inputs": [
        {
          "indexed": true,
          "internalType": "uint256",
          "name": "itemId",
          "type": "uint256"
        },
        {
          "indexed": false,
          "internalType": "address",
          "name": "tabeliao",
          "type": "address"
        }
      ],
      "name": "IncorporateRevert",
      "type": "event"
    },
    {
      "anonymous": false,
      "inputs": [
        {
          "indexed": true,
          "internalType": "uint256",
          "name": "itemId",
          "type": "uint256"
        },
        {
          "indexed": false,
          "internalType": "address",
          "name": "incorporator",
          "type": "address"
        }
      ],
      "name": "IncorporateStart",
      "type": "event"
    },
    {
      "inputs": [],
      "name": "_goodsAndRealEstate",
      "outputs": [
        {
          "internalType": "contract GoodsAndRealEstate",
          "name": "",
          "type": "address"
        }
      ],
      "stateMutability": "view",
      "type": "function"
    },
    {
      "inputs": [],
      "name": "_registryDAO",
      "outputs": [
        {
          "internalType": "contract RegistryDAO",
          "name": "",
          "type": "address"
        }
      ],
      "stateMutability": "view",
      "type": "function"
    },
    {
      "inputs": [
        {
          "internalType": "uint256",
          "name": "id",
          "type": "uint256"
        }
      ],
      "name": "finishIncorporation",
      "outputs": [],
      "stateMutability": "nonpayable",
      "type": "function"
    },
    {
      "inputs": [
        {
          "internalType": "uint256",
          "name": "id",
          "type": "uint256"
        },
        {
          "internalType": "uint256",
          "name": "previousId",
          "type": "uint256"
        }
      ],
      "name": "finishIncorporationUpdate",
      "outputs": [],
      "stateMutability": "nonpayable",
      "type": "function"
    },
    {
      "inputs": [
        {
          "internalType": "address",
          "name": "",
          "type": "address"
        },
        {
          "internalType": "address",
          "name": "",
          "type": "address"
        },
        {
          "internalType": "uint256[]",
          "name": "",
          "type": "uint256[]"
        },
        {
          "internalType": "uint256[]",
          "name": "",
          "type": "uint256[]"
        },
        {
          "internalType": "bytes",
          "name": "",
          "type": "bytes"
        }
      ],
      "name": "onERC1155BatchReceived",
      "outputs": [
        {
          "internalType": "bytes4",
          "name": "",
          "type": "bytes4"
        }
      ],
      "stateMutability": "nonpayable",
      "type": "function"
    },
    {
      "inputs": [
        {
          "internalType": "address",
          "name": "",
          "type": "address"
        },
        {
          "internalType": "address",
          "name": "",
          "type": "address"
        },
        {
          "internalType": "uint256",
          "name": "",
          "type": "uint256"
        },
        {
          "internalType": "uint256",
          "name": "",
          "type": "uint256"
        },
        {
          "internalType": "bytes",
          "name": "",
          "type": "bytes"
        }
      ],
      "name": "onERC1155Received",
      "outputs": [
        {
          "internalType": "bytes4",
          "name": "",
          "type": "bytes4"
        }
      ],
      "stateMutability": "nonpayable",
      "type": "function"
    },
    {
      "inputs": [
        {
          "internalType": "uint256",
          "name": "id",
          "type": "uint256"
        }
      ],
      "name": "revertIncorporation",
      "outputs": [],
      "stateMutability": "nonpayable",
      "type": "function"
    },
    {
      "inputs": [
        {
          "internalType": "uint256",
          "name": "id",
          "type": "uint256"
        }
      ],
      "name": "startIncorporation",
      "outputs": [],
      "stateMutability": "nonpayable",
      "type": "function"
    },
    {
      "inputs": [
        {
          "internalType": "bytes4",
          "name": "interfaceId",
          "type": "bytes4"
        }
      ],
      "name": "supportsInterface",
      "outputs": [
        {
          "internalType": "bool",
          "name": "",
          "type": "bool"
        }
      ],
      "stateMutability": "view",
      "type": "function"
    }
  ],
  "bytecode": "0x60806040523480156200001157600080fd5b506040516200205f3803806200205f83398181016040528101906200003791906200012a565b816000806101000a81548173ffffffffffffffffffffffffffffffffffffffff021916908373ffffffffffffffffffffffffffffffffffffffff16021790555080600160006101000a81548173ffffffffffffffffffffffffffffffffffffffff021916908373ffffffffffffffffffffffffffffffffffffffff160217905550505062000171565b600080fd5b600073ffffffffffffffffffffffffffffffffffffffff82169050919050565b6000620000f282620000c5565b9050919050565b6200010481620000e5565b81146200011057600080fd5b50565b6000815190506200012481620000f9565b92915050565b60008060408385031215620001445762000143620000c0565b5b6000620001548582860162000113565b9250506020620001678582860162000113565b9150509250929050565b611ede80620001816000396000f3fe608060405234801561001057600080fd5b50600436106100935760003560e01c80638015f239116100665780638015f2391461011e578063852b2aec1461013a578063a4d03f2114610158578063bc197c8114610174578063f23a6e61146101a457610093565b806301ffc9a7146100985780633dd88ac6146100c85780634c597485146100e45780634d9be49514610102575b600080fd5b6100b260048036038101906100ad9190611218565b6101d4565b6040516100bf9190611260565b60405180910390f35b6100e260048036038101906100dd91906112b1565b61024e565b005b6100ec610562565b6040516100f9919061135d565b60405180910390f35b61011c600480360381019061011791906112b1565b610586565b005b610138600480360381019061013391906112b1565b6108c7565b005b610142610c52565b60405161014f9190611399565b60405180910390f35b610172600480360381019061016d91906113b4565b610c78565b005b61018e60048036038101906101899190611640565b611118565b60405161019b919061171e565b60405180910390f35b6101be60048036038101906101b99190611739565b61112d565b6040516101cb919061171e565b60405180910390f35b60007f4e2312e0000000000000000000000000000000000000000000000000000000007bffffffffffffffffffffffffffffffffffffffffffffffffffffffff1916827bffffffffffffffffffffffffffffffffffffffffffffffffffffffff19161480610247575061024682611142565b5b9050919050565b60008054906101000a900473ffffffffffffffffffffffffffffffffffffffff1673ffffffffffffffffffffffffffffffffffffffff166391d1485460008054906101000a900473ffffffffffffffffffffffffffffffffffffffff1673ffffffffffffffffffffffffffffffffffffffff16631cc1d3176040518163ffffffff1660e01b8152600401602060405180830381865afa1580156102f5573d6000803e3d6000fd5b505050506040513d601f19601f820116820180604052508101906103199190611806565b336040518363ffffffff1660e01b8152600401610337929190611851565b602060405180830381865afa158015610354573d6000803e3d6000fd5b505050506040513d601f19601f8201168201806040525081019061037891906118a6565b6103b7576040517f08c379a00000000000000000000000000000000000000000000000000000000081526004016103ae90611930565b60405180910390fd5b6002600082815260200190815260200160002060020160149054906101000a900460ff161561041b576040517f08c379a00000000000000000000000000000000000000000000000000000000081526004016104129061199c565b60405180910390fd5b600160009054906101000a900473ffffffffffffffffffffffffffffffffffffffff1673ffffffffffffffffffffffffffffffffffffffff1663f242432a30338460016040518563ffffffff1660e01b815260040161047d9493929190611a3d565b600060405180830381600087803b15801561049757600080fd5b505af11580156104ab573d6000803e3d6000fd5b505050506000600260008381526020019081526020016000209050338160020160006101000a81548173ffffffffffffffffffffffffffffffffffffffff021916908373ffffffffffffffffffffffffffffffffffffffff16021790555060018160020160146101000a81548160ff021916908315150217905550817f87703a36751e63720162426e4fd61fb1459f231fb7bd5d3f836bce077631f238336040516105569190611a95565b60405180910390a25050565b60008054906101000a900473ffffffffffffffffffffffffffffffffffffffff1681565b60008054906101000a900473ffffffffffffffffffffffffffffffffffffffff1673ffffffffffffffffffffffffffffffffffffffff166391d1485460008054906101000a900473ffffffffffffffffffffffffffffffffffffffff1673ffffffffffffffffffffffffffffffffffffffff16633c50fde06040518163ffffffff1660e01b8152600401602060405180830381865afa15801561062d573d6000803e3d6000fd5b505050506040513d601f19601f820116820180604052508101906106519190611806565b336040518363ffffffff1660e01b815260040161066f929190611851565b602060405180830381865afa15801561068c573d6000803e3d6000fd5b505050506040513d601f19601f820116820180604052508101906106b091906118a6565b6106ef576040517f08c379a00000000000000000000000000000000000000000000000000000000081526004016106e690611afc565b60405180910390fd5b600073ffffffffffffffffffffffffffffffffffffffff166002600083815260200190815260200160002060010160009054906101000a900473ffffffffffffffffffffffffffffffffffffffff1673ffffffffffffffffffffffffffffffffffffffff1614610794576040517f08c379a000000000000000000000000000000000000000000000000000000000815260040161078b90611b8e565b60405180910390fd5b600160009054906101000a900473ffffffffffffffffffffffffffffffffffffffff1673ffffffffffffffffffffffffffffffffffffffff1663f242432a33308460016040518563ffffffff1660e01b81526004016107f69493929190611a3d565b600060405180830381600087803b15801561081057600080fd5b505af1158015610824573d6000803e3d6000fd5b505050506000600260008381526020019081526020016000209050818160000181905550338160010160006101000a81548173ffffffffffffffffffffffffffffffffffffffff021916908373ffffffffffffffffffffffffffffffffffffffff160217905550817f27d3ca297148d3d2d775d5bb88a796bb150f802ebe680b22e7dbf59f463f4ade336040516108bb9190611a95565b60405180910390a25050565b60008054906101000a900473ffffffffffffffffffffffffffffffffffffffff1673ffffffffffffffffffffffffffffffffffffffff166391d1485460008054906101000a900473ffffffffffffffffffffffffffffffffffffffff1673ffffffffffffffffffffffffffffffffffffffff16631cc1d3176040518163ffffffff1660e01b8152600401602060405180830381865afa15801561096e573d6000803e3d6000fd5b505050506040513d601f19601f820116820180604052508101906109929190611806565b336040518363ffffffff1660e01b81526004016109b0929190611851565b602060405180830381865afa1580156109cd573d6000803e3d6000fd5b505050506040513d601f19601f820116820180604052508101906109f191906118a6565b610a30576040517f08c379a0000000000000000000000000000000000000000000000000000000008152600401610a2790611930565b60405180910390fd5b806002600082815260200190815260200160002060020160149054906101000a900460ff1615610a95576040517f08c379a0000000000000000000000000000000000000000000000000000000008152600401610a8c90611bfa565b60405180910390fd5b6002600082815260200190815260200160002060020160159054906101000a900460ff1615610af9576040517f08c379a0000000000000000000000000000000000000000000000000000000008152600401610af090611c66565b60405180910390fd5b600073ffffffffffffffffffffffffffffffffffffffff166002600083815260200190815260200160002060010160009054906101000a900473ffffffffffffffffffffffffffffffffffffffff1673ffffffffffffffffffffffffffffffffffffffff1603610b9e576040517f08c379a0000000000000000000000000000000000000000000000000000000008152600401610b9590611cd2565b60405180910390fd5b6000600260008481526020019081526020016000209050338160020160006101000a81548173ffffffffffffffffffffffffffffffffffffffff021916908373ffffffffffffffffffffffffffffffffffffffff16021790555060018160020160156101000a81548160ff021916908315150217905550827fb0b4b18285b038cbf0eee60be20e5f6db831ec98bf6dd64811ad96d22d02747233604051610c459190611a95565b60405180910390a2505050565b600160009054906101000a900473ffffffffffffffffffffffffffffffffffffffff1681565b60008054906101000a900473ffffffffffffffffffffffffffffffffffffffff1673ffffffffffffffffffffffffffffffffffffffff166391d1485460008054906101000a900473ffffffffffffffffffffffffffffffffffffffff1673ffffffffffffffffffffffffffffffffffffffff16631cc1d3176040518163ffffffff1660e01b8152600401602060405180830381865afa158015610d1f573d6000803e3d6000fd5b505050506040513d601f19601f82011682018060405250810190610d439190611806565b336040518363ffffffff1660e01b8152600401610d61929190611851565b602060405180830381865afa158015610d7e573d6000803e3d6000fd5b505050506040513d601f19601f82011682018060405250810190610da291906118a6565b610de1576040517f08c379a0000000000000000000000000000000000000000000000000000000008152600401610dd890611930565b60405180910390fd5b81816002600083815260200190815260200160002060020160149054906101000a900460ff1615610e47576040517f08c379a0000000000000000000000000000000000000000000000000000000008152600401610e3e90611bfa565b60405180910390fd5b600073ffffffffffffffffffffffffffffffffffffffff166002600084815260200190815260200160002060010160009054906101000a900473ffffffffffffffffffffffffffffffffffffffff1673ffffffffffffffffffffffffffffffffffffffff1603610eec576040517f08c379a0000000000000000000000000000000000000000000000000000000008152600401610ee390611cd2565b60405180910390fd5b6002600082815260200190815260200160002060020160149054906101000a900460ff1615610f50576040517f08c379a0000000000000000000000000000000000000000000000000000000008152600401610f4790611d64565b60405180910390fd5b6002600082815260200190815260200160002060020160159054906101000a900460ff16610fb3576040517f08c379a0000000000000000000000000000000000000000000000000000000008152600401610faa90611df6565b60405180910390fd5b600073ffffffffffffffffffffffffffffffffffffffff166002600083815260200190815260200160002060010160009054906101000a900473ffffffffffffffffffffffffffffffffffffffff1673ffffffffffffffffffffffffffffffffffffffff1603611058576040517f08c379a000000000000000000000000000000000000000000000000000000000815260040161104f90611e88565b60405180910390fd5b6000600260008681526020019081526020016000209050338160020160006101000a81548173ffffffffffffffffffffffffffffffffffffffff021916908373ffffffffffffffffffffffffffffffffffffffff16021790555083816003018190555060018160020160156101000a81548160ff02191690831515021790555083857f035a4bdd193ef494f3841107062c69347c2b40cec89ab7ef897e475127f8462f336040516111099190611a95565b60405180910390a35050505050565b600063bc197c8160e01b905095945050505050565b600063f23a6e6160e01b905095945050505050565b60007f01ffc9a7000000000000000000000000000000000000000000000000000000007bffffffffffffffffffffffffffffffffffffffffffffffffffffffff1916827bffffffffffffffffffffffffffffffffffffffffffffffffffffffff1916149050919050565b6000604051905090565b600080fd5b600080fd5b60007fffffffff0000000000000000000000000000000000000000000000000000000082169050919050565b6111f5816111c0565b811461120057600080fd5b50565b600081359050611212816111ec565b92915050565b60006020828403121561122e5761122d6111b6565b5b600061123c84828501611203565b91505092915050565b60008115159050919050565b61125a81611245565b82525050565b60006020820190506112756000830184611251565b92915050565b6000819050919050565b61128e8161127b565b811461129957600080fd5b50565b6000813590506112ab81611285565b92915050565b6000602082840312156112c7576112c66111b6565b5b60006112d58482850161129c565b91505092915050565b600073ffffffffffffffffffffffffffffffffffffffff82169050919050565b6000819050919050565b600061132361131e611319846112de565b6112fe565b6112de565b9050919050565b600061133582611308565b9050919050565b60006113478261132a565b9050919050565b6113578161133c565b82525050565b6000602082019050611372600083018461134e565b92915050565b60006113838261132a565b9050919050565b61139381611378565b82525050565b60006020820190506113ae600083018461138a565b92915050565b600080604083850312156113cb576113ca6111b6565b5b60006113d98582860161129c565b92505060206113ea8582860161129c565b9150509250929050565b60006113ff826112de565b9050919050565b61140f816113f4565b811461141a57600080fd5b50565b60008135905061142c81611406565b92915050565b600080fd5b6000601f19601f8301169050919050565b7f4e487b7100000000000000000000000000000000000000000000000000000000600052604160045260246000fd5b61148082611437565b810181811067ffffffffffffffff8211171561149f5761149e611448565b5b80604052505050565b60006114b26111ac565b90506114be8282611477565b919050565b600067ffffffffffffffff8211156114de576114dd611448565b5b602082029050602081019050919050565b600080fd5b6000611507611502846114c3565b6114a8565b9050808382526020820190506020840283018581111561152a576115296114ef565b5b835b81811015611553578061153f888261129c565b84526020840193505060208101905061152c565b5050509392505050565b600082601f83011261157257611571611432565b5b81356115828482602086016114f4565b91505092915050565b600080fd5b600067ffffffffffffffff8211156115ab576115aa611448565b5b6115b482611437565b9050602081019050919050565b82818337600083830152505050565b60006115e36115de84611590565b6114a8565b9050828152602081018484840111156115ff576115fe61158b565b5b61160a8482856115c1565b509392505050565b600082601f83011261162757611626611432565b5b81356116378482602086016115d0565b91505092915050565b600080600080600060a0868803121561165c5761165b6111b6565b5b600061166a8882890161141d565b955050602061167b8882890161141d565b945050604086013567ffffffffffffffff81111561169c5761169b6111bb565b5b6116a88882890161155d565b935050606086013567ffffffffffffffff8111156116c9576116c86111bb565b5b6116d58882890161155d565b925050608086013567ffffffffffffffff8111156116f6576116f56111bb565b5b61170288828901611612565b9150509295509295909350565b611718816111c0565b82525050565b6000602082019050611733600083018461170f565b92915050565b600080600080600060a08688031215611755576117546111b6565b5b60006117638882890161141d565b95505060206117748882890161141d565b94505060406117858882890161129c565b93505060606117968882890161129c565b925050608086013567ffffffffffffffff8111156117b7576117b66111bb565b5b6117c388828901611612565b9150509295509295909350565b6000819050919050565b6117e3816117d0565b81146117ee57600080fd5b50565b600081519050611800816117da565b92915050565b60006020828403121561181c5761181b6111b6565b5b600061182a848285016117f1565b91505092915050565b61183c816117d0565b82525050565b61184b816113f4565b82525050565b60006040820190506118666000830185611833565b6118736020830184611842565b9392505050565b61188381611245565b811461188e57600080fd5b50565b6000815190506118a08161187a565b92915050565b6000602082840312156118bc576118bb6111b6565b5b60006118ca84828501611891565b91505092915050565b600082825260208201905092915050565b7f6f6e6c7920746162656c69616f20616c6c6f7765640000000000000000000000600082015250565b600061191a6015836118d3565b9150611925826118e4565b602082019050919050565b600060208201905081810360008301526119498161190d565b9050919050565b7f696e636f72706f726174696f6e20616c72656164792072657665727465640000600082015250565b6000611986601e836118d3565b915061199182611950565b602082019050919050565b600060208201905081810360008301526119b581611979565b9050919050565b6119c58161127b565b82525050565b6000819050919050565b60006119f06119eb6119e6846119cb565b6112fe565b61127b565b9050919050565b611a00816119d5565b82525050565b600082825260208201905092915050565b50565b6000611a27600083611a06565b9150611a3282611a17565b600082019050919050565b600060a082019050611a526000830187611842565b611a5f6020830186611842565b611a6c60408301856119bc565b611a7960608301846119f7565b8181036080830152611a8a81611a1a565b905095945050505050565b6000602082019050611aaa6000830184611842565b92915050565b7f6f6e6c7920656d706c6f79656520616c6c6f7765640000000000000000000000600082015250565b6000611ae66015836118d3565b9150611af182611ab0565b602082019050919050565b60006020820190508181036000830152611b1581611ad9565b9050919050565b7f736f6d656f6e6520616c72656164792073746172746564207468697320696e6360008201527f6f72706f726174696f6e00000000000000000000000000000000000000000000602082015250565b6000611b78602a836118d3565b9150611b8382611b1c565b604082019050919050565b60006020820190508181036000830152611ba781611b6b565b9050919050565b7f696e636f72706f726174696f6e20726576657274656400000000000000000000600082015250565b6000611be46016836118d3565b9150611bef82611bae565b602082019050919050565b60006020820190508181036000830152611c1381611bd7565b9050919050565b7f696e636f72706f726174696f6e2066696e697368656420616c72656164790000600082015250565b6000611c50601e836118d3565b9150611c5b82611c1a565b602082019050919050565b60006020820190508181036000830152611c7f81611c43565b9050919050565b7f696e636f72706f726174696f6e206e6f74207374617274656400000000000000600082015250565b6000611cbc6019836118d3565b9150611cc782611c86565b602082019050919050565b60006020820190508181036000830152611ceb81611caf565b9050919050565b7f696e636f72706f726174696f6e20726576657274656420666f7220707265766960008201527f6f75734964000000000000000000000000000000000000000000000000000000602082015250565b6000611d4e6025836118d3565b9150611d5982611cf2565b604082019050919050565b60006020820190508181036000830152611d7d81611d41565b9050919050565b7f70726576696f757320696e636f72706f726174696f6e206e6f742066696e697360008201527f68656420666f722070726576696f757349640000000000000000000000000000602082015250565b6000611de06032836118d3565b9150611deb82611d84565b604082019050919050565b60006020820190508181036000830152611e0f81611dd3565b9050919050565b7f696e636f72706f726174696f6e206e6f74207374617274656420666f7220707260008201527f6576696f75734964000000000000000000000000000000000000000000000000602082015250565b6000611e726028836118d3565b9150611e7d82611e16565b604082019050919050565b60006020820190508181036000830152611ea181611e65565b905091905056fea264697066735822122086fa1a20005d04e24486b0664c0c759b35d6fc0d698871e9e817929f866f5a2264736f6c63430008110033",
  "linkReferences": {},
  "deployedLinkReferences": {}
}